:100000000C944C010C9469010C9469010C94130438
:100010000C9469010C9469010C9469010C946901B8
:100020000C9469010C9469010C94DC080C94160979
:100030000C9469010C9469010C9469010C94690198
:100040000C9469010C9469010C9469010C94690188
:100050000C9469010C9469010C9469010C94690178
:100060000C9469010C9469010C9469010C94690168
:100070000C9469010C9469010C9469010C94690158
:100080000C9442040C9469010C9469010C9469016C
:100090000C9469010C9469010C9469010C94690138
:1000A0000C9469010C9469010C9469017D087A082B
:1000B0007708740871086E086B086808650862089C
:1000C0005F085C0859085608530850084D084A084C
:1000D0004708440841083E083B08380835083208FC
:1000E0002F082C0829082608230820081D081A08AC
:1000F0001708140811080E080B080808050802085C
:10010000FF07FC07F907F607F307F007ED07EA0713
:10011000E707E407E107DE07DB07D807D507D207C3
:10012000CF07CC07C907C607C307C007BD070D0A1D
:10013000000952204D6F746F72203D3A2000094C27
:10014000204D6F746F72203D3A2000090009706FD6
:10015000743A20006F666600206F6E0042757474FA
:100160006F6E204C3A090009006F666600206F6EC2
:1001700000427574746F6E20523A09004E6F206D04
:100180006F64652E2E2E3F20090054414E4B204DAA
:100190004F4445212009004D6172696F204B617207
:1001A0007420524143494E47210900446F75626CE7
:1001B00065204A6F79737469636B2044726976694C
:1001C0006E67090053696E676C65204A6F797374B6
:1001D00069636B2044726976696E6709004649520B
:1001E000450A0D0000010000180212000200002A5A
:1001F0000243000300006D020401030904710212AE
:1002000002030904850206030309048D02080001A4
:10021000C112018036018136120100020200001075
:10022000C0167A0400010102030109024300020121
:1002300000C0320904000001020201000524001080
:10024000010524010101042402060524060001071A
:1002500005820310004009040100020A00000007A3
:100260000503024000000705840240000004030962
:100270000412034A002E0020004600690065006E4B
:10028000006500000006034D003200000008033442
:10029000003100300000000011241FBECFEFDAE073
:1002A000DEBFCDBF12E0A0E0B1E0E6EAFAE202C0B4
:1002B00005900D92A431B107D9F712E0A4E1B2E0A4
:1002C00001C01D92AF33B107E1F70E94D4040C9432
:1002D00051150C9400006F927F928F929F92AF9273
:1002E000BF92CF92DF92EF92FF920F931F93CF9323
:1002F000DF93EC013B01842E922EE0900001F09000
:100300000101009102011091030160E070E080E8BA
:100310009FE3A80197010E94C410D62EC72EB82EC5
:10032000A92EBE01882777FD8095982F0E94EF1196
:10033000A80197010E94F5100E944F12EB016091F5
:10034000300270913102882777FD8095982F0E94A6
:10035000EF11D601F5012B2F3A2F4F2F5E2F0E9460
:10036000F5100E944F12C60FD71FB301882777FDE3
:100370008095982F0E94EF11A80197010E94F51017
:100380000E944F127B0160912E0270912F028827EC
:1003900077FD8095982F0E94EF11D601F5012B2F44
:1003A0003A2F4F2F5E2F0E94F5100E944F126E0DB4
:1003B0007F1DD0933102C093300270932F0260935F
:1003C0002E028FEF693C78072CF488EC90E0861BB6
:1003D000970B06C06833710544F0CB0188539F4FDB
:1003E00090938B0080938A0004C010928B0010922F
:1003F0008A008FEFC93CD80754F488EC90E08C1B3E
:100400009D0B90938D0080938C00469812C0C8334A
:10041000D1053CF0C853DF4FD0938D00C0938C00C2
:1004200007C010928D0010928C00C733D1050CF0DC
:10043000469A6733710514F0479A05C08FEF693CFF
:1004400078070CF4479897FE03C05E9A8F9A06C00F
:10045000992019F05E9A8F9801C05E9887FE03C0BC
:100460005F9A8E9A06C0882019F05F9A8E9801C014
:100470005F98DF91CF911F910F91FF90EF90DF90E8
:10048000CF90BF90AF909F908F907F906F90089586
:100490000F931F93CF93DF93C0911702D09118024F
:1004A00020911B0230911C02C901880F991F820FF5
:1004B000931F22E030E0B9010E943114FB0100914A
:1004C000190210911A0240911D0250911E02CA0198
:1004D000880F991F840F951FB9010E943114093CA0
:1004E000110534F48FEF0833180724F42FEF03C0FD
:1004F00021E001C020E0693C710534F48FEF6833DE
:10050000780724F44FEF03C041E001C040E081E0F0
:10051000C53FD80754F48EEFCC30D807A4F0CC0FE9
:10052000DD1F1C161D061CF009C0C7EED3E01E1609
:100530001F06F4F0CE018E0F9F1F18C08FEFCE3C28
:10054000D80774F402C0C9E1DCEF1E161F0624F4BC
:10055000BE016E0F7F1F0FC0CE018E1B9F0B06C00A
:100560001E161F062CF4CF018C0F9D1FBE0104C068
:10057000BE016E1B7F0BCE010E946B01DF91CF91FC
:100580001F910F9108958F929F92AF92BF92CF9239
:10059000DF92EF92FF920F931F93CF93DF93EC01C3
:1005A0004B01E0900001F0900101009102011091D7
:1005B000030160E070E080E89FE3A80197010E94DA
:1005C000C410D62EC72EB82EA92EBE01882777FDBF
:1005D0008095982F0E94EF11A80197010E94F510B5
:1005E0000E944F12EB016091300270913102882716
:1005F00077FD8095982F0E94EF11D601F5012B2FE2
:100600003A2F4F2F5E2F0E94F5100E944F12C60FF7
:10061000D71FB401882777FD8095982F0E94EF118E
:10062000A80197010E94F5100E944F127B01609172
:100630002E0270912F02882777FD8095982F0E94B7
:10064000EF11D601F5012B2F3A2F4F2F5E2F0E946D
:10065000F5100E944F126E0D7F1DD0933102C09392
:10066000300270932F0260932E028FEF693C78075F
:100670002CF488EC90E0861B970B06C0683371055C
:1006800044F0CB0188539F4F90938B0080938A0056
:1006900004C010928B0010928A008FEFC93CD807DB
:1006A00054F488EC90E08C1B9D0B90938D0080930C
:1006B0008C00469812C0C833D1053CF0C853DF4FB8
:1006C000D0938D00C0938C0007C010928D001092C3
:1006D0008C00C733D1050CF0469A6733710514F0CE
:1006E000479A05C08FEF693C78070CF44798DF9173
:1006F000CF911F910F91FF90EF90DF90CF90BF901F
:10070000AF909F908F9008958D9A81E080933902E9
:1007100080913A02882321F08DED91E00E947E0ABB
:1007200008950E94B4066A9A729806C08FE99FE005
:100730000197F1F700C000000E94CD068823B1F3B5
:100740006A9A729A089582EF93E090938900809359
:10075000880010928B0010928A0010928D001092E7
:100760008C00E1E8F0E080818B7F80838081826073
:10077000808380818E7F808380818061808380817F
:1007800088608083E0E8F0E08081826080838081FF
:100790008160808380818062808380818F7E80837E
:1007A00080818860808380818B7F8083089581E74A
:1007B00092E09093990080939800E1E7F0E08081C7
:1007C00082608083E1E9F0E08081846080838081C1
:1007D0008D7F808380818E7F808380818F7E8083E8
:1007E000808188608083E0E9F0E080818D7F808374
:1007F00080818E7F80830895269A2E98279A2F983D
:100800003E9A46983F9A4798569A5E98579A5F98AC
:10081000859A8D98869A8E98879A8F982098219895
:100820002298239808951F920F920FB60F921124C9
:100830002F933F934F935F936F937F938F939F93E8
:10084000AF93BF93EF93FF936E9A8EB190E4892795
:100850008EB985E192E06CE00E94120681E08093FF
:100860001402FF91EF91BF91AF919F918F917F9172
:100870006F915F914F913F912F910F900FBE0F900D
:100880001F9018951F920F920FB60F9211248F93FD
:100890009F936A9A8EB194E089278EB981E0809304
:1008A00004019F918F910F900FBE0F901F9018958C
:1008B0000F931F93CF93DF93109214028091200225
:1008C0008B3069F08C301CF4813091F405C0803499
:1008D00049F0843669F409C084EC91E00BC08BEADE
:1008E00091E008C087E991E005C08AE891E002C084
:1008F0008CE791E00E947E0A81E791E00E947E0AE7
:1009000080911502813019F48DE691E002C089E6EC
:1009100091E00E947E0A87E691E00E947E0A8CE5C3
:1009200091E00E947E0A80911602813019F488E5D8
:1009300091E002C084E591E00E947E0A07E112E0A6
:10094000C1E0D0E08DE491E00E947E0ACE010E94D9
:10095000B60A8BE491E00E947E0AF80181919191A0
:100960008F010E94B60A2296C930D10559F78EE34D
:1009700091E00E947E0A80918A0090918B000E94F3
:10098000B60A81E391E00E947E0A80918C009091EA
:100990008D000E94B60A8EE291E00E947E0ADF91ED
:1009A000CF911F910F91089580E885BF85BF8093F7
:1009B000610082E0809361000E94FC0380913A0212
:1009C000882321F480912D02882311F00E94910345
:1009D0000E94A3030E94D7030E94160581E065E2EE
:1009E0004CE00E94BA0580E090E060E070E00E9478
:1009F000C302809114028823E1F3109214020E9432
:100A0000480280912D02882311F00E9458048091A1
:100A10001502813021F080911602813051F78091CA
:100A20003902882331F70E948403E3CF589A599AF8
:100A30005A9A8CE08093B800E9E6F0E08081806209
:100A4000808380818F7E8083EA9A7894089584E8F9
:100A50008093BC008091BC0087FFFCCF8091BB00DD
:100A6000089584E98093BC00089520E030E08091EF
:100A7000BC0087FD06C02F5F3F4F83E0293E38074B
:100A8000B1F781E093E0283E390709F480E008954A
:100A90008093BB0084E88093BC000E9435058823C6
:100AA00021F08091B900887F089580E008951F9318
:100AB000DF93CF930F92CDB7DEB7182F84EA8093E0
:100AC000BC0069830E9435056981882371F0812FFC
:100AD000880F662331F08F5F0E944805883451F4F7
:100AE00004C00E944805803229F484E98093BC0048
:100AF00080E001C081E00F90CF91DF911F910895B8
:100B0000CF93DF93C62FD42F60E00E945705882330
:100B100079F08C2F0E944805882351F08D2F0E9478
:100B20004805882329F084E98093BC0081E001C056
:100B300080E0DF91CF910895CF93DF93C82FD62F18
:100B400060E00E945705882389F08D2F0E94480598
:100B5000882361F084E98093BC008C2F61E00E94BF
:100B60005705882319F00E94270501C080E0DF9116
:100B7000CF910895DF93CF9300D00F92CDB7DEB71A
:100B80004B836A8389830E94160594EA9093BC0084
:100B900089816A814B819091BC0097FFFCCF90E5E1
:100BA0009093BB0094E89093BC009091BC0097FF99
:100BB000FCCF9091B900987F903229F484E980931A
:100BC000BC0080E029C091E09093BB0094E8909332
:100BD000BC009091BC0097FFFCCF8093BB0084E8E1
:100BE0008093BC008091BC0087FFFCCF6093BB006A
:100BF00084E88093BC008091BC0087FFFCCF4093C9
:100C0000BB0084E88093BC008091BC0087FFFCCFD0
:100C100084E98093BC0081E00F900F900F90CF91FA
:100C2000DF91089524EA2093BC002091BC0027FFA7
:100C3000FCCF21E52093BB0024E82093BC00209149
:100C4000BC0027FFFCCF2091B900287F2834A9F0F1
:100C500024EC2093BC002091BC0027FFFCCF209106
:100C6000BB00261751F4FC0120E030E0772767FD38
:100C700070956150704044EC10C084E98093BC00D2
:100C800080E008954093BC005091BC0057FFFCCF1A
:100C90005091BB0051932F5F3F4F2617370794F3B6
:100CA00044E84093BC004091BC0047FFFCCF40911A
:100CB000BB00820F931FFC01408384E98093BC003A
:100CC00081E00895F89494EA9093BC009091BC0060
:100CD00097FFFCCF90E59093BB0094E89093BC0005
:100CE0009091BC0097FFFCCF9091B900987F903213
:100CF00031F484E98093BC00789480E0089593E017
:100D00009093BB0094E89093BC009091BC0097FF37
:100D1000FCCF8093BB0084E88093BC008091BC0032
:100D200087FFFCCF862F972FFC0180E090E05527AE
:100D300047FD509524E80AC031913093BB002093C1
:100D4000BC003091BC0037FFFCCF0196841795079B
:100D50009CF384E98093BC00789481E008958091AD
:100D6000E80080FFFCCF089581E08093D70080EAFF
:100D70008093D80082E189BD09B400FEFDCF80E9EF
:100D80008093D8001092E00010923B0210923C0237
:100D90008CE08093E2007894089580913B0208955E
:100DA0009FB7F89480913B02882339F083E08093C9
:100DB000E9008091E80085FD03C09FBF8FEF089593
:100DC0008091F1002091E80025FD03C02BE62093DF
:100DD000E8009FBF08959FB7F89480913B02882355
:100DE00031F083E08093E9008091F20001C080E05F
:100DF0009FBF089580913B02882371F08FB7F894CC
:100E000093E09093E9009BE602C09093E800209164
:100E1000E80025FDFACF8FBF089590913B029923FA
:100E2000D1F19FB7F89424E02093E90020913E028D
:100E3000222341F02091E80025FD02C09FBF2BC076
:100E400010923E022091E400275E34E04091E800D9
:100E500045FD12C09FBF9091E400921721F481E0FC
:100E600080933E0218C090913B029923B1F09FB746
:100E7000F8943093E900EACF8093F1008091E80084
:100E800085FD03C08AE38093E80085E080933D02FE
:100E90009FBF80E008958FEF08958FEF08959091A0
:100EA0003B029923D9F09FB7F89424E02093E900FE
:100EB0002091E80025FD03C09FBF8FEF0895809328
:100EC000F1008091E80085FD03C08AE38093E8008B
:100ED00085E080933D029FBF80E008958FEF0895E5
:100EE000CF93DC0180913B02882309F41AC12FB70C
:100EF000F89484E08093E90080913E02882309F40D
:100F000005C18091E80085FD02C02FBF0AC1109283
:100F10003E02FCC08091E400875E9091E80095FD60
:100F200013C02FBF9091E400981721F481E08093C3
:100F30003E02F7C090913B02992309F4F2C02FB70B
:100F4000F894C093E900E9CF8091F200E52FE81B07
:100F50008E2F90E06817790708F4E62F6E1B710951
:100F6000F0E0E134F10508F0C5C0EA5AFF4FEE0F9A
:100F7000FF1F0590F491E02D09948D918093F1006D
:100F80008D918093F1008D918093F1008D918093EC
:100F9000F1008D918093F1008D918093F1008D91FE
:100FA0008093F1008D918093F1008D918093F100F9
:100FB0008D918093F1008D918093F1008D918093BC
:100FC000F1008D918093F1008D918093F1008D91CE
:100FD0008093F1008D918093F1008D918093F100C9
:100FE0008D918093F1008D918093F1008D9180938C
:100FF000F1008D918093F1008D918093F1008D919E
:101000008093F1008D918093F1008D918093F10098
:101010008D918093F1008D918093F1008D9180935B
:10102000F1008D918093F1008D918093F1008D916D
:101030008093F1008D918093F1008D918093F10068
:101040008D918093F1008D918093F1008D9180932B
:10105000F1008D918093F1008D918093F1008D913D
:101060008093F1008D918093F1008D918093F10038
:101070008D918093F1008D918093F1008D918093FB
:10108000F1008D918093F1008D918093F1008D910D
:101090008093F1008D918093F1008D918093F10008
:1010A0008D918093F1008D918093F1008D918093CB
:1010B000F1008D918093F1008D918093F1008D91DD
:1010C0008093F1008D918093F1008D918093F100D8
:1010D0008D918093F1008D918093F1008D9180939B
:1010E000F1008D918093F1008D918093F1008D91AD
:1010F0008093F1008D918093F1008091E80085FD4F
:1011000002C04093E80030933D0204C0C4E050E4C4
:101110004AE335E06115710509F0FCCE2FBF80E090
:1011200001C08FEFCF9108958FB7F89490913D0251
:10113000992341F094E09093E9009AE39093E800BA
:1011400010923D028FBF089580910901089580910A
:101150000A01089580910B01089580913C02089541
:101160009FB7F89420913B02222339F022E020938C
:10117000E9003091E80035FD03C09FBF8FEF08956F
:1011800031EA3093F10030E23093F1001092F10037
:101190001092F1001092F1001092F1002093F100F2
:1011A0001092F1008093F1001092F1008AE3809395
:1011B000E8009FBF80E008951F920F920FB60F9234
:1011C00011248F939F938091E1001092E10083FF9F
:1011D00011C01092E90091E09093EB001092EC00A6
:1011E00092E19093ED0098E09093F00010923B0212
:1011F00010923C0282FF13C080913B02882379F059
:1012000080913D02882359F0815080933D028823CC
:1012100031F484E08093E9008AE38093E8009F91B1
:101220008F910F900FBE0F901F9018951F920F92E5
:101230000FB60F921124EF92FF920F931F932F93EB
:101240003F934F935F936F937F938F939F93AF934E
:10125000BF93EF93FF93DF93CF930F92CDB7DEB79A
:101260001092E9008091E80083FF2DC12091F100E8
:101270003091F100E090F100FF244091F100942FB3
:1012800080E0E82AF92A0091F10010E04091F10095
:10129000942F80E0082B192B6091F100A091F100B0
:1012A00082EF8093E800363009F059C08BEE91E070
:1012B0009C0125503040FC013797459154914E15C3
:1012C0005F05F9F4F9014591549140175107C9F4AC
:1012D0002E5F3F4FF901859194912E5F3F4FF901A9
:1012E0002491462F50E07A2F60E0462B572B4F3F3A
:1012F000510519F010F04FEF50E0421750F4242F31
:1013000008C00796295F3F4FF2E085319F0799F6A5
:10131000DAC0AEEF4091E80050E0BA01657070703D
:1013200061157105B9F342FDD1C0322F213108F0AA
:1013300030E1AC01632F07C0FA014F5F5F4FE491CA
:10134000E093F10061506623B9F7830F911D231BD1
:10135000A093E8002223F1F63031E1F2B7C0353036
:1013600051F48EEF8093E8000E94AF068E2D8068C6
:101370008093E300ABC0393051F5222309F0A3C0BC
:10138000E0923B0210923C0210923D028EEF80935D
:10139000E80041E08EE092E04093E900FC01019614
:1013A000E491E093EB00EE2369F09C012F5F3F4F47
:1013B000FC0184918093EC00C9010196F90124910C
:1013C0002093ED004F5F453039F78EE177C038301C
:1013D00051F4203809F077C00E94AF0680913B029B
:1013E0008093F10048C0313279F4213A09F06BC0A2
:1013F0000E94AF06E5E0F1E081918093F10041E0C9
:10140000EC30F407C9F737C03032A1F4213209F0CB
:101410005AC08091E80082FFFCCFE5E0F1E08091C6
:10142000F100819381E0EC30F807C9F78BEF8093EE
:10143000E80021C0323241F4213209F044C0E09288
:101440003C020E94AF0617C03323C9F429830E94CF
:10145000AF062981223851F40093E9009091EB0006
:1014600081E095FF80E01092E90001C080E0809368
:10147000F1001092F1008EEF8093E80027C0313028
:1014800011F0333001F52230F1F4E114F104D9F414
:101490000F77802F81508430B0F48EEF8093E80076
:1014A0000093E900333079F089E18093EB0081E02B
:1014B00090E002C0880F991F0A95E2F78093EA0036
:1014C0001092EA0003C081E28093EB000F90CF916D
:1014D000DF91FF91EF91BF91AF919F918F917F919C
:1014E0006F915F914F913F912F911F910F91FF90BD
:1014F000EF900F900FBE0F901F9018951F93CF93F2
:10150000DF93EC01FE0121961491112349F01A306A
:1015100019F48DE00E940D07812F0E940D07F2CF74
:10152000DF91CF911F9108958A3010F490E301C0AC
:1015300097E3890F0E940D070895CF93C82F8295D6
:101540008F700E94940A8C2F8F700E94940ACF9102
:101550000895CF93C82F892F0E949D0A8C2F0E9437
:101560009D0ACF9108950E949D0A0895EF92FF92DF
:101570000F931F93DF93CF93CDB7DEB727970FB6A7
:10158000F894DEBF0FBECDBF8E010F5F1F4F27E067
:10159000F80111922A95E9F7B8014AE050E00E945B
:1015A0008F1488E0E82EF12CEC0EFD1EF8018191DD
:1015B0008F01882311F00E940D070E151F05B1F74A
:1015C00027960FB6F894DEBF0FBECDBFCF91DF9147
:1015D0001F910F91FF90EF900895EF92FF920F935C
:1015E0001F93DF93CF9300D000D00F92CDB7DEB71B
:1015F0008E010F5F1F4F25E0F80111922A95E9F740
:10160000B8014AE050E00E94091596E0E92EF12C5D
:10161000EC0EFD1EF80181918F01882311F00E94CC
:101620000D070E151F05B1F70F900F900F900F903B
:101630000F90CF91DF911F910F91FF90EF90089540
:10164000EF92FF920F931F93DF93CF93CDB7DEB747
:101650002B970FB6F894DEBF0FBECDBF8E010F5F84
:101660001F4F2BE0F80111922A95E9F7A8012AE013
:1016700030E00E94B0142CE0E22EF12CEC0EFD1EA6
:10168000F80181918F01882311F00E940D070E153A
:101690001F05B1F72B960FB6F894DEBF0FBECDBF76
:1016A000CF91DF911F910F91FF90EF900895EF92EE
:1016B000FF920F931F93DF93CF93CDB7DEB72A9797
:1016C0000FB6F894DEBF0FBECDBF8E010F5F1F4F68
:1016D0002AE0F80111922A95E9F7A8012AE030E002
:1016E0000E94E4143BE0E32EF12CEC0EFD1EF80109
:1016F00081918F01882311F00E940D070E151F059F
:10170000B1F72A960FB6F894DEBF0FBECDBFCF91CA
:10171000DF911F910F91FF90EF900895CF93DF938A
:10172000D82FC62F843008F05EC0643008F05BC04C
:101730000E9416058FEF95EAAEE081509040A040E0
:10174000E1F700C0000089E665E70E949C05883645
:1017500009F049C089E66BE641E00E9480054D2F03
:10176000440F440F440F89E66CE10E9480054C2F22
:10177000440F440F440F89E66BE10E94800589E61F
:1017800067E342E00E9480058EE162E040E00E9453
:10179000800589E667E340E00E94800589E664E30E
:1017A0004EE10E94800589E667E641E00E948005DF
:1017B00089E664E24DE10E94800589E665E24EE932
:1017C0000E94800589E666E243E00E94800589E682
:1017D00067E246E90E94800589E66AE640E20E94E7
:1017E000800581E001C080E0DF91CF910895EF9204
:1017F000FF920F931F93DF93CF93CDB7DEB765971B
:101800000FB6F894DEBF0FBECDBF8C017E010894E9
:10181000E11CF11C9EE489E6692F9D8B0E949C05CA
:10182000D7018D937D019D8991509A33A1F7FE01D7
:10183000319686859785D80115969C938E9314973B
:10184000868197811B969C938E931A9789819A81A2
:1018500051969C938E9350978089918913969C936F
:101860008E9312978085918519969C938E931897E5
:10187000828193811F969C938E931E978289938970
:1018800011969C938E938285938517969C938E9345
:101890001697848195811D969C938E931C9781E069
:1018A00065960FB6F894DEBF0FBECDBFCF91DF9126
:1018B0001F910F91FF90EF900895EF92FF920F9379
:1018C0001F93DF93CF93CDB7DEB727970FB6F8946A
:1018D000DEBF0FBECDBF8C017E010894E11CF11C60
:1018E00090E489E6692F9F830E949C05D7018D9320
:1018F0007D019F8191509A33A1F7FE013196898134
:101900009A81D80115969C938E9314978281938126
:1019100013969C938E9312978481958111969C9334
:101920008E9381E027960FB6F894DEBF0FBECDBF31
:10193000CF91DF911F910F91FF90EF900895EF925B
:10194000FF920F931F93DF93CF93CDB7DEB7279707
:101950000FB6F894DEBF0FBECDBF8C017E01089498
:10196000E11CF11C98E489E6692F9F830E949C0585
:10197000D7018D937D019F8191509234A1F7FE0193
:10198000319689819A81D80115969C938E931497EC
:101990008281938113969C938E9312978481958173
:1019A00011969C938E9381E027960FB6F894DEBF34
:1019B0000FBECDBFCF91DF911F910F91FF90EF90A0
:1019C0000895EF92FF920F931F93DF93CF93CDB7BC
:1019D000DEB727970FB6F894DEBF0FBECDBF8C01E0
:1019E0007E010894E11CF11C9EE489E6692F9F8327
:1019F0000E949C05D7018D937D019F819150983461
:101A0000A1F7FE01319689819A81D80115969C93A0
:101A10008E9314978281938113969C938E93129741
:101A20008481958111969C938E9381E027960FB6C1
:101A3000F894DEBF0FBECDBFCF91DF911F910F9104
:101A4000FF90EF90089565E048E30E94800591E0E3
:101A5000882309F490E0892F08951F93CF93DF9393
:101A6000D82FC62F142F0E949C05C23058F4E1E0F5
:101A7000F0E002C0EE0FFF1F1A95E2F74E2F4095DF
:101A800048230DC09C2F9251923078F421E030E031
:101A900002C0220F331F1A95E2F7482F422B8D2FD9
:101AA0006C2F0E94800581E001C080E0DF91CF9122
:101AB0001F9108951F93CF93DF93D82FC62F142F14
:101AC0000E949C059C2F9251923058F4E1E0F0E086
:101AD00002C0EE0FFF1F1A95E2F74E2F40954823E4
:101AE0000BC0C23078F421E030E002C0220F331F77
:101AF0001A95E2F7482F422B8D2F6C2F0E948005FC
:101B000081E001C080E0DF91CF911F910895DF93C4
:101B1000CF930F92CDB7DEB749830E949C0590E02A
:101B2000498102C0959587954A95E2F781700F909B
:101B3000CF91DF91089520E030E08091BC0087FDD7
:101B400006C02F5F3F4F83E0293E3807B1F781E0A1
:101B500093E0283E390709F480E008958093BB00A4
:101B600084E88093BC000E949B0D882321F0809123
:101B7000B900887F089580E00895CF93C82F84EA44
:101B80008093BC000E949B0D882351F08C2F880FFE
:101B90008F5F0E94AE0D883429F484E98093BC00E5
:101BA00080E001C081E0CF910895CF93C82F84EAEF
:101BB0008093BC000E949B0D882349F08C2F880FD6
:101BC0000E94AE0D803229F484E98093BC0080E04D
:101BD00001C081E0CF910895EF92FF920F931F9380
:101BE000DF93CF93CDB7DEB760970FB6F894DEBF23
:101BF0000FBECDBFF82EE92E8E010F5F1F4F80E183
:101C0000F80111928A95E9F788E50E94D50D88239D
:101C100009F463C086E30E94AE0D882309F45DC019
:101C200084E98093BC00F5E8FA95F1F7000088E5B7
:101C30000E94BD0D882309F450C0F8019E01205F69
:101C40003F4F84EC8093BC009091BC0097FFFCCF89
:101C50009091BB009193E217F307A1F784E880937A
:101C6000BC008091BC0087FFFCCF8091BB00888BBB
:101C700084E98093BC00FE013296C701A92FBE2DD6
:101C8000035F1F4F228130E0C9018073907054E0E0
:101C9000880F991F5A95E1F74081840F911D119685
:101CA0009C938E93C901807C9070880F991F880F38
:101CB000991F4181840F911D13969C938E931297C7
:101CC0002F70307015963C932E931497339616967A
:101CD000E017F107B9F681E001C080E060960FB629
:101CE000F894DEBF0FBECDBFCF91DF911F910F9152
:101CF000FF90EF900895CF930E94160588E50E940B
:101D0000D50D882309F4C2C080E30E94AE0D88235C
:101D100009F4BCC081E00E94AE0D882309F4B6C06E
:101D200084E98093BC008FE39CE90197F1F700C040
:101D3000000088E50E94D50D882309F4A7C080E043
:101D40000E94AE0D882309F4A1C080E00E94AE0D70
:101D5000882309F49BC080E00E94AE0D882309F41B
:101D600095C080E00E94AE0D882309F48FC080E00A
:101D70000E94AE0D882309F489C080E00E94AE0D58
:101D8000882309F483C080E00E94AE0D882309F403
:101D90007DC080E90E94AE0D882309F477C0C4E9B4
:101DA000C093BC008FE39CE90197F1F700C00000ED
:101DB00088E50E94D50D882309F468C087E00E9459
:101DC000AE0D882309F462C080E00E94AE0D882326
:101DD00009F45CC081E40E94AE0D882309F456C06A
:101DE000C093BC008FE39CE90197F1F700C00000AD
:101DF00088E50E94D50D882309F448C08AE10E9435
:101E0000AE0D882309F442C080E40E94AE0D882301
:101E1000E9F180E00E94AE0D8823C1F1C093BC00BF
:101E20008FE39CE90197F1F700C0000088E50E946C
:101E3000D50D882359F183E30E94AE0D882331F13B
:101E400083E00E94AE0D882309F1C093BC008FE3AC
:101E50009CE90197F1F700C0000088E50E94D50DCC
:101E60008823A1F080E30E94AE0D882379F088E0FA
:101E70000E94AE0D882351F0C093BC008FE39CE913
:101E80000197F1F700C0000081E001C080E0CF9130
:101E9000089584E98093BC000895A0E0B0E0E3E5F4
:101EA000FFE00C945C14FC01EA018081823008F4AC
:101EB00038C1DB019C91923008F430C1843059F470
:101EC000943009F02EC1918111968C911197981739
:101ED00009F021C126C1943009F420C19230B1F437
:101EE000823009F01EC1CA01AF0128E0DA010D906D
:101EF000AD01DC010D92CD012150C1F7DB0111963E
:101F00008C9111979181892389830AC1823009F4C8
:101F100005C1C280D380DB0112966D907C9013972F
:101F200024813581468157811496ED90FD900D9165
:101F30001C911797C601861997095C0197FF04C089
:101F4000AA24BB24A81AB90AB0E2AB16B1040CF05B
:101F500061C0181619066CF5370148010A2C04C037
:101F600096948794779467940A94D2F781E090E0EE
:101F7000A0E0B0E00A2C04C0880F991FAA1FBB1F65
:101F80000A94D2F70197A109B1098E219F21A023BC
:101F9000B123EE24FF248701E3940097A105B10546
:101FA00019F4EE24FF248701E628F72808291929C7
:101FB0003CC00097D1F1CA0CDB1C39014A010A2C44
:101FC00004C096948794779467940A94D2F781E03A
:101FD00090E0A0E0B0E00A2C04C0880F991FAA1F6F
:101FE000BB1F0A94D2F70197A109B1098223932359
:101FF000A423B52321E030E040E050E00097A105A4
:10200000B10519F420E030E0A90126293729482933
:1020100059290BC06C147D0424F4EE24FF2487019D
:1020200004C0630120E030E0A9018181FB019181BE
:10203000891709F445C0882349F0D801C701821BDC
:10204000930BA40BB50B9C01AD0104C02E193F09E5
:10205000400B510B57FD04C01982DB82CA820BC0B2
:1020600081E08983DB82CA82509540953095219525
:102070003F4F4F4F5F4F2C833D834E835F830DC097
:10208000880F991FAA1FBB1F8C839D83AE83BF83BC
:102090008A819B8101979B838A838C819D81AE81FC
:1020A000BF819C01AD0121503040404050402F3F46
:1020B000EFEF3E07EFEF4E07EFE35E0708F30BC0CD
:1020C0008983DB82CA822E0D3F1D401F511F2C8346
:1020D0003D834E835F8383E088832C813D814E81E5
:1020E0005F8157FF1DC0DA01C90181709070A07037
:1020F000B0705695479537952795822B932BA42B37
:10210000B52B8C839D83AE83BF838A819B8101968F
:102110009B838A8305C0ECE0F1E003C0FB0101C0B2
:10212000FE01CF01CDB7DEB7EEE00C947814A0E24B
:10213000B0E0EDE9F0E10C94641469837A838B8359
:102140009C832D833E834F83588789E0E82EF12CB2
:10215000EC0EFD1ECE010196B7010E94C8138E0140
:102160000F5E1F4FCE010596B8010E94C813C7012C
:10217000B801AE01475E5F4F0E944D0F0E94FB12F7
:10218000A096E6E00C948014A0E2B0E0EAECF0E166
:102190000C94641469837A838B839C832D833E83A0
:1021A0004F8358878E01075F1F4FCE010196B801FC
:1021B0000E94C81391E1E92EF12CEC0EFD1ECE0118
:1021C0000596B7010E94C8138A8991E089278A8BF6
:1021D000C801B701AE01475E5F4F0E944D0F0E94DC
:1021E000FB12A096E6E00C948014A0E2B0E0EBEFC6
:1021F000F0E10C94581469837A838B839C832D833C
:102200003E834F835887CE010196BE01675F7F4FA3
:102210000E94C813CE010596BE016F5E7F4F0E94DB
:10222000C8139985923078F089898230C0F0943053
:1022300019F4823041F4CBC0843019F4923079F42F
:10224000C6C0923051F481E02A859A89291709F491
:1022500080E08A87CE010996BCC0823051F481E0CB
:102260002A859A89291709F480E08A8BCE01419644
:10227000B0C06D847E848F849888ED88FE880F8935
:10228000188DE0E2F0E080E090E0DC01AA24BB24BD
:10229000650120E030E0A901B30161707070611543
:1022A0007105D1F02E0D3F1D401F511F1501260154
:1022B000280E391E4A1E5B1E81E090E0A0E0B0E0CF
:1022C0002E153F054007510718F080E090E0DC0133
:1022D000820D931DA41DB51DAA0CBB1CCC1CDD1CBE
:1022E00017FF09C061E0262E312C412C512CA22869
:1022F000B328C428D528319749F0EE0CFF1C001FE5
:10230000111F9694879477946794C6CF6B897C89C4
:10231000EB85FC856E0F7F1F6E5F7F4F7C8F6B8F11
:1023200061E0EA857A89E71709F460E06A8F6B8DCE
:102330007C8D10C0FC01E170F070309729F056954B
:102340004795379527955068B695A79597958795A2
:102350006F5F7F4FB7FDEECF0CC0880F991FAA1F8C
:10236000BB1F57FD8160220F331F441F551F615053
:1023700070408030E0E09E07E0E0AE07E0E4BE079A
:1023800060F36B8F7C8F6FE7E62EF12C012D112D02
:10239000E822F9220A231B2360E4E616F104010572
:1023A000110561F487FD0AC021153105410551056C
:1023B00029F0805C9F4FAF4FBF4F80788D8F9E8FED
:1023C000AF8FB8A383E0898FCE01499602C08CE01D
:1023D00091E00E94FB12A096E2E10C947414A8E034
:1023E000B0E0E5EFF1E10C9464147B018C0183E033
:1023F0008983D801C7018827B7FD83959927AA2724
:10240000BB27282F8A83E114F1040105110519F473
:1024100082E0898337C08EE190E09C838B83222306
:1024200089F080E0E81680E0F80680E0080780E8A0
:10243000180769F110950095F094E094E11CF11CE7
:10244000011D111DED82FE820F831887C801B7019F
:102450000E94A1129C01215030401216130694F4E0
:10246000022E04C0EE0CFF1C001F111F0A94D2F7AD
:10247000ED82FE820F8318878EE190E0821B930B22
:102480009C838B83CE0101960E94FB1204C060E006
:1024900070E080E09FEC2896E6E00C948014ACE0BD
:1024A000B0E0E5E5F2E10C94681469837A838B83EC
:1024B0009C83CE010196BE016B5F7F4F0E94C813C3
:1024C0008D81823081F1823070F1843021F48E81EF
:1024D000882369F10AC02F81388537FD24C06E81B9
:1024E0002F3131053CF0662311F120E030E040E06F
:1024F00050E821C08EE190E0821B930B29853A853C
:102500004B855C8504C056954795379527958A95E8
:10251000D2F7662381F050954095309521953F4F35
:102520004F4F5F4F08C020E030E0A90104C02FEFFB
:102530003FEF4FEF5FE7B901CA012C96E2E00C9440
:102540008414AF92BF92CF92DF92EF92FF920F93DB
:102550001F937B018C0180E0E81680E0F80681E0A3
:10256000080780E0180758F4EFEFEE16F1040105B4
:10257000110509F090F480E090E0DC0117C0F0E074
:10258000EF16F0E0FF06F0E00F07F1E01F0750F450
:1025900080E190E0A0E0B0E009C088E090E0A0E039
:1025A000B0E004C088E190E0A0E0B0E020E230E0DC
:1025B00040E050E0281B390B4A0B5B0B57016801C8
:1025C00004C0D694C794B794A7948A95D2F7D6013D
:1025D000C5018C5E9E4FFC018081281B3109410999
:1025E0005109C9011F910F91FF90EF90DF90CF909B
:1025F000BF90AF900895EF92FF920F931F93CF93E8
:10260000DF93FC012481358146815781618180817E
:10261000823020F44061EFEFF0E0A3C0843009F491
:102620009BC0823009F492C0211531054105510546
:1026300009F48FC00280F381E02D7FEFE238F707C5
:102640000CF05AC0C2E8DFEFCE1BDF0BCA31D10558
:102650006CF579018A010C2E04C016950795F79444
:10266000E7940A94D2F781E090E0A0E0B0E00C2E6D
:1026700004C0880F991FAA1FBB1F0A94D2F70197A5
:10268000A109B10982239323A423B52321E030E0DB
:1026900040E050E00097A105B10519F420E030E0DA
:1026A000A9012E293F29402B512B03C020E030E007
:1026B000A901DA01C9018F779070A070B0708034E1
:1026C0009105A105B10539F427FF09C0205C3F4FF2
:1026D0004F4F5F4F04C0215C3F4F4F4F5F4FE1E0D2
:1026E000F0E0203080E0380780E0480780E45807B9
:1026F00028F5E0E0F0E022C0E038F1056CF5E158A3
:10270000FF4FDA01C9018F779070A070B0708034EC
:102710009105A105B10539F427FF09C0205C3F4FA1
:102720004F4F5F4F04C0215C3F4F4F4F5F4F57FFEC
:1027300005C05695479537952795319687E056956C
:102740004795379527958A95D1F70BC0E0E0F0E0E3
:1027500005C0E0E0F0E005C0EFEFF0E020E030E0A1
:10276000A9018E2F879588278795942F9F77679546
:1027700066276795E695A92FA82BFE2FF62B622FCB
:10278000732F8A2F9F2FCDB7DEB7E6E00C9480140D
:10279000DC01FB012C9111963C91119712968C91C2
:1027A0001297482F4F7750E0982F991F9927991F1C
:1027B00013966C911397862F880F892B90E0661FD4
:1027C0006627661F6183009739F52115310541059C
:1027D000510511F482E029C082E89FEF9383828340
:1027E00067E0220F331F441F551F6A95D1F783E01E
:1027F000808309C0220F331F441F551F828193819C
:10280000019793838283203080E0380780E0480777
:1028100080E4580778F320C08F3F910579F42115A3
:1028200031054105510519F484E08083089544FF82
:1028300003C081E0808310C010820EC08F5790408B
:102840009383828383E0808387E0220F331F441FBA
:10285000551F8A95D1F75064248335834683578367
:10286000089597FB092E07260AD077FD04D00CD0D7
:1028700006D000201AF4709561957F4F0895F6F701
:10288000909581959F4F0895AA1BBB1B51E107C0EE
:10289000AA1FBB1FA617B70710F0A61BB70B881FF0
:1028A000991F5A95A9F780959095BC01CD0108957F
:1028B0002F923F924F925F926F927F928F929F9250
:1028C000AF92BF92CF92DF92EF92FF920F931F933E
:1028D000CF93DF93CDB7DEB7CA1BDB0B0FB6F894EF
:1028E000DEBF0FBECDBF09942A88398848885F842F
:1028F0006E847D848C849B84AA84B984C884DF80A0
:10290000EE80FD800C811B81AA81B981CE0FD11D83
:102910000FB6F894DEBF0FBECDBFED010895FB01E9
:102920009F01E8944230C4F04532B4F44A3029F4AF
:1029300097FB1EF4909581959F4F642F77270E94F7
:102940004414805D8A330CF0895D8193CB0100973C
:10295000A1F716F45DE251931082C9010C941F1582
:10296000FA01CF93FF93EF93223044F1253234F5EF
:10297000C22FE894CA3049F497FB3EF490958095B5
:10298000709561957F4F8F4F9F4F2C2F3327442792
:102990005527FF93EF930E942F15EF91FF91605DF4
:1029A0006A330CF0695D6193B901CA0160507040EF
:1029B0008040904051F716F4CDE2C19310828F9180
:1029C0009F91CF910C941F15FA01CF93FF93EF9332
:1029D0002230CCF02532BCF4C22F2C2F33274427D1
:1029E0005527FF93EF930E942F15EF91FF91605DA4
:1029F0006A330CF0695D6193B901CA01605070409F
:102A00008040904051F710828F919F91CF910C940C
:102A10001F15FB019F01423074F0453264F4642FAE
:102A200077270E944414805D8A330CF0895D81937E
:102A3000CB010097A1F71082C9010C941F15DC018E
:102A4000FC01672F71917723E1F7329704C07C91E5
:102A50006D9370836291AE17BF07C8F30895A1E22A
:102A60001A2EAA1BBB1BFD010DC0AA1FBB1FEE1F08
:102A7000FF1FA217B307E407F50720F0A21BB30B53
:102A8000E40BF50B661F771F881F991F1A9469F7CF
:102A900060957095809590959B01AC01BD01CF012B
:062AA0000895F894FFCF39
:102AA6000000803E0100E100000000080000000078
:102AB60000000000000102020303030304040404EF
:102AC60004040404050505050505050505050505B4
:102AD6000505050506060606060606060606060694
:102AE6000606060606060606060606060606060680
:102AF6000606060607070707070707070707070764
:102B0600070707070707070707070707070707074F
:102B1600070707070707070707070707070707073F
:102B2600070707070707070707070707070707072F
:102B36000707070708080808080808080808080813
:102B460008080808080808080808080808080808FF
:102B560008080808080808080808080808080808EF
:102B660008080808080808080808080808080808DF
:102B760008080808080808080808080808080808CF
:102B860008080808080808080808080808080808BF
:102B960008080808080808080808080808080808AF
:102BA600080808080808080808080808080808089F
:042BB60008080808FB
:00000001FF
