:100000000C9456000C9473000C9473000C947500BF
:100010000C9473000C9473000C9473000C94730094
:100020000C9473000C9473000C9473000C94730084
:100030000C9473000C9473000C9473000C94730074
:100040000C9473000C9473000C9473000C94730064
:100050000C9473000C9473000C9473000C94730054
:100060000C9473000C9473000C9473000C94730044
:100070000C9473000C9473000C9473000C94730034
:100080000C9473000C9473000C9473000C94730024
:100090000C9473000C9473000C9473000C94730014
:1000A0000C9473000C9473000C94730011241FBE05
:1000B000CFEFDAE0DEBFCDBF12E0A0E0B1E0ECE2CE
:1000C000FDE102C005900D92AA30B107D9F712E008
:1000D000AAE0B2E001C01D92A232B107E1F70E948E
:1000E000B8000C94940E0C9400001F920F920FB65F
:1000F0000F9211242F933F934F935F936F937F93AE
:100100008F939F93AF93BF93EF93FF9381E090E022
:1001100090930B0280930A028EE192E064E00E94C9
:10012000910681E00E94E80088EB9BE020E931E045
:10013000F9013197F1F70197D9F7809101016EE14B
:1001400072E044E00E94E20680E00E94E800FF9135
:10015000EF91BF91AF919F918F917F916F915F913F
:100160004F913F912F910F900FBE0F901F901895B8
:1001700080E885BF85BF80936100109261008CE0AC
:100180006091000144E00E942E0783E040E050E0CF
:1001900060E87FE30E940801C09BFECFC09A809177
:1001A0000A0290910B02892B41F080E00E94F80036
:1001B00010920B0210920A02EFCF81E00E94F80029
:1001C000809101016EE172E044E00E94E206E4CF1A
:1001D0006A9A813031F0823031F0882341F4729A8A
:1001E0000895729808958EB194E089278EB9089584
:1001F0006E9A813031F0823031F0882341F4769A62
:100200000895769808958EB190E489278EB908955F
:10021000EF92FF920F931F937A018B01813009F4C3
:10022000A7C082301CF4882341F063C3833009F4F3
:1002300067C1843009F05DC32CC284B5816084BD80
:1002400084B5826084BD85B5886085BD16BC409349
:100250000E0250930F026093100270931102CB01B3
:10026000BA0120E038E146E757E40E940B0B18166C
:100270008CF460E074E284E79BE4A80197010E949B
:100280005F0A0E948F0767BD85B5816085BD85B512
:100290008D7F32C0C801B70120E030E545EF55E45D
:1002A0000E943B0B882374F060E074E284EF99E4D1
:1002B000A80197010E945F0A0E948F0767BD85B55C
:1002C0008E7F17C0C801B70120E030E045E754E455
:1002D0000E943B0B8823A4F060E074E284E798E47A
:1002E000A80197010E945F0A0E948F0767BD85B52C
:1002F000816085BD85B5826085BD85B58B7F36C043
:10030000C801B70120E030E045E753E40E943B0B11
:10031000882374F060E074E284E797E4A801970111
:100320000E945F0A0E948F0767BD85B58E7F18C047
:10033000C801B70123E333E345E752E40E943B0BD6
:1003400088230CF4D6C260E074E284E796E4A80146
:1003500097010E945F0A0E948F0767BD85B5816083
:1003600085BD85B58D7F85BD85B5846085BD0FC193
:1003700080918100806180938100809181008860FC
:1003800080938100809180008260809380008091C2
:10039000800081608093800010928500109284001C
:1003A000409312025093130260931402709315024B
:1003B000CB01BA0120E030E04AE753E40E940B0B86
:1003C0001816BCF460E074E284E79BE4A80197018E
:1003D0000E945F0A0E948F077093890060938800D3
:1003E00080918100816080938100809181008D7F68
:1003F0003CC0C801B70120E030E048EF51E40E9462
:100400003B0B882394F060E074E284EF99E4A80148
:1004100097010E945F0A0E948F0770938900609382
:100420008800809181008E7F1BC0C801B70120E049
:1004300030E040E850E40E943B0B8823E4F060E0A9
:1004400074E284E798E4A80197010E945F0A0E9481
:100450008F0770938900609388008091810081608C
:1004600080938100809181008260809381008091DF
:1004700081008B7F42C0C801B70120E030E040E836
:100480005FE30E943B0B882394F060E074E284E712
:1004900097E4A80197010E945F0A0E948F0770935A
:1004A000890060938800809181008E7F1CC0C80104
:1004B000B7012FE832EC45E75EE30E940B0B1816FC
:1004C0000CF017C260E074E284E796E4A80197019B
:1004D0000E945F0A0E948F077093890060938800D2
:1004E00080918100816080938100809181008D7F67
:1004F000809381008091810084608093810047C057
:10050000809191008061809391008091910088603A
:100510008093910080919000826080939000809100
:1005200090008E7F8093900010929500109294001E
:1005300040931602509317026093180270931902A9
:10054000CB01BA0120E030E04AE753E40E940B0BF4
:100550001816FCF460E074E284E79BE4A8019701BC
:100560000E945F0A0E948F07709397006093960025
:1005700080919100816080939100809191008D7FA6
:1005800080939100809191008B7F8093910081E016
:10059000B1C1C801B70120E030E048EF51E40E944A
:1005A0003B0B882394F060E074E284EF99E4A801A7
:1005B00097010E945F0A0E948F07709397006093D3
:1005C0009600809191008E7F1BC0C801B70120E08A
:1005D00030E040E850E40E943B0B8823BCF060E030
:1005E00074E284E798E4A80197010E945F0A0E94E0
:1005F0008F077093970060939600809191008160BF
:1006000080939100809191008260BACFC801B701B8
:1006100020E030E040E85FE30E943B0B882394F049
:1006200060E074E284E797E4A80197010E945F0A02
:100630000E948F07709397006093960080919100BD
:100640008E7F1CC0C801B7012FE832EC45E75EE39E
:100650000E940B0B18160CF04CC160E074E284E7AA
:1006600096E4A80197010E945F0A0E948F07709389
:100670009700609396008091910081608093910033
:10068000809191008D7F8093910080919100846092
:100690007CCF8091C3008D7F8093C3008091C30085
:1006A0008E7F8093C3001092BF001092BE004093D3
:1006B0001A0250931B0260931C0270931D02CB011F
:1006C000BA0120E030E644E756E40E940B0B18160E
:1006D000E4F460E074E284E79BE4A80197010E94DF
:1006E0005F0A0E948F077093BF006093D1008091D2
:1006F000C10081608093C1008091C1008D7F809393
:10070000C1008091C1008B7F29C0C801B70120E0E2
:1007100030E04AEF54E40E940B0B18162CF560E011
:1007200074E284EF99E4A80197010E945F0A0E9495
:100730008F0770930C0210920D027093BF006093AC
:10074000D1008091C1008E7F8093C1008091C10053
:100750008D7F8093C1008091C10084608093C1002F
:100760008091C100877FC2C0C801B70120E030E896
:1007700044EF53E40E940B0B1816B4F460E074E2EB
:1007800084EF98E4A80197010E945F0A0E948F07F6
:1007900070930C0210920D027093BF006093D10011
:1007A0008091C1008E7F1FC0C801B70120E030E0FA
:1007B00045E753E40E940B0B1816DCF460E074E28A
:1007C00084E798E4A80197010E945F0A0E948F07BE
:1007D00070930C0210920D027093BF006093D100D1
:1007E0008091C10081608093C1008091C1008260CE
:1007F000B0CFC801B70120E030E048EF51E40E94DB
:100800000B0B181604F560E074E284EF96E4A8017F
:1008100097010E945F0A0E948F0770930C0210924A
:100820000D027093BF006093D1008091C1008E7F54
:100830008093C1008091C10082608093C10080914B
:10084000C1008B7F4EC0C801B70120E030E040E01E
:1008500051E40E940B0B1816DCF460E074E284EFA4
:1008600095E4A80197010E945F0A0E948F07709388
:100870000C0210920D027093BF006093D100809122
:10088000C1008E7F8093C1008091C1008D7F24C004
:10089000C801B70120E030E040E85FE30E940B0BA5
:1008A00018163CF560E074E284E794E4A80197012F
:1008B0000E945F0A0E948F0770930C0210920D0233
:1008C0007093BF006093D1008091C10081608093DC
:1008D000C1008091C10082608093C1008091C100FD
:1008E00084608093C1008091C10088608093C100C2
:1008F0004ECE80E01F910F91FF90EF9008958130D0
:10090000C9F082301CF4882339F095C0833091F10E
:10091000843009F090C041C0613009F08CC044239C
:1009200021F0509A84B5806203C0509884B58F7DC1
:1009300084BD7FC0613021F0623009F07CC00CC002
:10094000442329F0269A80918000806210C0269866
:10095000809180008F7D0BC0442329F0279A8091DD
:100960008000886004C0279880918000877F8093F2
:1009700080005FC0613009F05EC0442339F03E9AC8
:100980008091900080688093900010C03E98809184
:1009900090008F778093900013C06230D9F063305D
:1009A00089F1613009F047C0442351F03F9A8091AA
:1009B000C00080688093C0008091C00082601FC02A
:1009C0003F988091C0008F778093C0008091C000D5
:1009D0008D7F15C0442351F0259A8091C00080611D
:1009E0008093C0008091C000816009C025988091EB
:1009F000C0008F7E8093C0008091C0008E7F809366
:100A0000C00017C0442351F0579A8091C2008860FB
:100A10008093C2008091C200816009C05798809184
:100A2000C200877F8093C2008091C2008E7F809336
:100A3000C20081E0089580E00895AF92BF92CF9206
:100A4000DF92EF92FF920F931F93082F162F5901F9
:100A50006A01CA01B90120E030E040E050E00E94A4
:100A60006B0B87FD54C1C601B50120E030E048ECB6
:100A700052E40E940B0B18160CF449C1013049F1E5
:100A800002301CF4002341F042C1033009F465C078
:100A9000043009F03CC1C6C0113009F038C167B557
:100AA00070E080E090E00E94EF0B7B018C01C601BA
:100AB000B50120E030E048EC52E40E945F0A9B015F
:100AC000AC01C801B7010E9465090E948F0768BD8B
:100AD000FAC0113021F0123009F019C11FC0609125
:100AE00088007091890080E090E00E94EF0B7B010C
:100AF0008C01C601B50120E030E048EC52E40E94D0
:100B00005F0A9B01AC01C801B7010E9465090E9400
:100B10008F0770938B0060938A0027C060918800D4
:100B20007091890080E090E00E94EF0B7B018C01C6
:100B3000C601B50120E030E048EC52E40E945F0AB3
:100B40009B01AC01C801B7010E9465090E948F0793
:100B500070938D0060938C0027C0123029F1133000
:100B600009F441C0113009F0D2C060919600709133
:100B7000970080E090E00E94EF0B7B018C01C601A2
:100B8000B50120E030E048EC52E40E945F0A9B018E
:100B9000AC01C801B7010E9465090E948F077093DC
:100BA00099006093980046C06091960070919700FC
:100BB00080E090E00E94EF0B7B018C01C601B50143
:100BC00020E030E048EC52E40E945F0A9B01AC0157
:100BD000C801B7010E9465090E948F0770939B00AE
:100BE00060939A0049C0609196007091970080E0F0
:100BF00090E00E94EF0B7B018C01C601B50120E063
:100C000030E048EC52E40E945F0A9B01AC01C8014D
:100C1000B7010E9465090E948F0770939D00609341
:100C20009C0053C0123041F1133009F44EC0113012
:100C300009F06DC02091D10070910C0260E0620F4C
:100C4000711D80E090E00E94EF0B7B018C01C601DA
:100C5000B50120E030E048EC52E40E945F0A9B01BD
:100C6000AC01C801B7010E9465090E948F0770930B
:100C7000BF006093CF0027C02091D10070910C027B
:100C800060E0620F711D80E090E00E94EF0B7B013D
:100C90008C0160E070E088EC92E4A60195010E946E
:100CA000070920E030E048EC52E40E945F0A9B0113
:100CB000AC01C801B7010E9465090E948F077093BB
:100CC000BF006093D00081E023C02091D1007091DB
:100CD0000C0260E0620F711D80E090E00E94EF0B5B
:100CE0007B018C01C601B50120E030E048EC52E404
:100CF0000E945F0A9B01AC01C801B7010E9465090F
:100D00000E948F077093BF006093D200DCCF80E019
:100D10001F910F91FF90EF90DF90CF90BF90AF9019
:100D200008959C0184EA8093BC008091BC0087FFF9
:100D3000FCCF81E58093BB0084E88093BC00809168
:100D4000BC0087FFFCCF8091B900887F8834A1F078
:100D500084EC8093BC008091BC0087FFFCCF809125
:100D6000BB00861749F4A0E0B0E0772767FD7095D7
:100D70006150704094EC12C084E98093BC0080E024
:100D800008959093BC008091BC0087FFFCCF8091B8
:100D9000BB00F901EA0FFB1F80831196A617B70766
:100DA00084F384E88093BC008091BC0087FFFCCF73
:100DB0008091BB00A20FB31F8C9384E98093BC0089
:100DC00081E00895982F84EA8093BC008091BC0054
:100DD00087FFFCCF80E58093BB0084E88093BC0054
:100DE0008091BC0087FFFCCF8091B900887F803262
:100DF00029F484E98093BC0080E0089583E0809327
:100E0000BB0084E88093BC008091BC0087FFFCCFCE
:100E10009093BB0084E88093BC008091BC0087FF66
:100E2000FCCF20E030E0552747FD509594E80EC0F8
:100E3000FB01E20FF31F80818093BB009093BC0005
:100E40008091BC0087FFFCCF2F5F3F4F24173507F1
:100E50007CF384E98093BC0081E00895FF920F93B6
:100E60001F93182F062FF42E0E947E0784EA80938A
:100E7000BC008091BC0087FFFCCF80E58093BB0065
:100E800084E88093BC008091BC0087FFFCCF8091F8
:100E9000B900887F803229F484E98093BC0080E027
:100EA00029C081E08093BB0084E88093BC008091DE
:100EB000BC0087FFFCCF1093BB0084E88093BC008C
:100EC0008091BC0087FFFCCF0093BB0084E8809337
:100ED000BC008091BC0087FFFCCFF092BB0084E88F
:100EE0008093BC008091BC0087FFFCCF84E9809395
:100EF000BC0081E01F910F91FF900895589A599A74
:100F00005A9A8CE08093B800E9E6F0E08081806234
:100F1000808380818F7E8083EA9A78940895EF920F
:100F2000FF920F931F937B018C0120E030E040E0A3
:100F30005FE40E943B0B88238CF0C801B70120E0DE
:100F400030E040E05FE40E9407090E949B0B9B0198
:100F5000AC01205030404040504806C0C801B701A5
:100F60000E949B0B9B01AC01B901CA011F910F911B
:100F7000FF90EF900895A0E0B0E0E1ECF7E00C9472
:100F80005D0EDC012B01FA019C91923008F439C10D
:100F9000EB018881823008F433C1943069F48430E5
:100FA00009F02FC111969C9111978981981709F426
:100FB00028C1A2E0B1E025C1843009F421C182300A
:100FC000A9F4923009F01DC19A01AD0188E0EA014F
:100FD0000990AE01E90109929E018150C1F7E20139
:100FE000898111969C918923818308C1923009F4EB
:100FF00007C112962D903C901397EB018A819B813B
:101000001496AD90BD90CD90DC901797EC80FD804C
:101010000E811F819101281B390BB90137FF04C0D4
:1010200066277727621B730B603271050CF061C075
:10103000121613066CF537014801062E04C096946B
:101040008794779467940A94D2F721E030E040E0E7
:1010500050E004C0220F331F441F551F6A95D2F77A
:1010600021503040404050402E213F214023512309
:10107000211531054105510521F021E030E040E026
:1010800050E079018A01E628F728082919293CC08F
:10109000232BD1F1260E371E35014601062E04C042
:1010A00096948794779467940A94D2F721E030E07D
:1010B00040E050E004C0220F331F441F551F6A95C3
:1010C000D2F721503040404050402A213B214C2152
:1010D0005D21211531054105510521F021E030E068
:1010E00040E050E059016A01A628B728C828D9284D
:1010F0000BC0821593052CF01C01AA24BB246501AA
:1011000003C0EE24FF24870111969C91D201119611
:101110008C91981709F445C0992339F0A8019701DB
:101120002A193B094C095D0906C0A60195012E1933
:101130003F09400B510B57FD08C0118233822282B8
:1011400024833583468357831DC081E081833382A6
:10115000228288279927DC01821B930BA40BB50BF5
:1011600084839583A683B7830DC0220F331F441F4A
:10117000551F24833583468357838281938101974A
:10118000938382832481358146815781DA01C901A5
:101190000197A109B1098F5F9F4FAF4FBF4328F35C
:1011A0000BC0918333822282EA0CFB1C0C1D1D1D97
:1011B000E482F5820683178383E08083248135816E
:1011C0004681578157FF1AC0C901AA2797FDA095EC
:1011D000BA2F81709070A070B07056954795379572
:1011E0002795822B932BA42BB52B84839583A683E1
:1011F000B78382819381019693838283DF0101C04B
:10120000D201CD01CDB7DEB7E2E10C94790EA0E2B8
:10121000B0E0EDE0F9E00C94690E69837A838B838A
:101220009C832D833E834F835887E9E0EE2EF12C7B
:10123000EC0EFD1ECE010196B7010E948C0D8E01B1
:101240000F5E1F4FCE010596B8010E948C0D8A8952
:1012500091E089278A8BC701B801AE01475E5F4FD5
:101260000E94BB070E94B70CA096E6E00C94850E86
:10127000A0E2B0E0EEE3F9E00C94690E69837A83B2
:101280008B839C832D833E834F835887F9E0EF2E19
:10129000F12CEC0EFD1ECE010196B7010E948C0DC3
:1012A0008E010F5E1F4FCE010596B8010E948C0D76
:1012B000C701B801AE01475E5F4F0E94BB070E94A5
:1012C000B70CA096E6E00C94850EA0E2B0E0EBE649
:1012D000F9E00C945D0E69837A838B839C832D8364
:1012E0003E834F835887CE010196BE01675F7F4FD3
:1012F0000E948C0DCE010596BE016F5E7F4F0E944D
:101300008C0D9985923088F089898230C8F09430AC
:1013100019F4823051F404C0843029F4923081F4FD
:1013200082E091E0C6C0923049F420E09A858A8933
:10133000981321E02A87CE010996BBC0823049F478
:1013400020E09A858A89981321E02A8BCE01419664
:10135000B0C02D843E844F8458886D887E888F88E5
:10136000988CEE24FF248701AA24BB24650140E069
:1013700050E060E070E0E0E0F0E0C101817090706A
:10138000892BE9F0E60CF71C081D191D9A01AB0129
:101390002A0D3B1D4C1D5D1D80E090E0A0E0B0E0FB
:1013A000E614F7040805190520F481E090E0A0E0B8
:1013B000B0E0BA01A901480F591F6A1F7B1FAA0C90
:1013C000BB1CCC1CDD1C97FE08C081E090E0A0E0B7
:1013D000B0E0A82AB92ACA2ADB2A3196E032F10500
:1013E00049F0660C771C881C991C569447943794D6
:1013F0002794C3CFFA85EA892B893C898B859C8504
:10140000280F391F2E5F3F4F17C0CA01817090709F
:10141000892B61F016950795F794E79480E090E0AA
:10142000A0E0B0E8E82AF92A0A2B1B2B76956795ED
:10143000579547952F5F3F4F77FDE7CF0CC0440F7F
:10144000551F661F771F17FD4160EE0CFF1C001F24
:10145000111F21503040403090E0590790E069075B
:1014600090E4790760F32B8F3C8FDB01CA018F7703
:101470009070A070B07080349105A105B10561F441
:1014800047FD0AC0E114F1040105110529F0405C93
:101490005F4F6F4F7F4F40781A8EFE1711F081E03B
:1014A0008A8F4D8F5E8F6F8F78A383E0898FCE01F7
:1014B00049960E94B70CA096E2E10C94790EA8E13F
:1014C000B0E0E5E6FAE00C94650E69837A838B83DD
:1014D0009C832D833E834F835887B9E0EB2EF12CFC
:1014E000EC0EFD1ECE010196B7010E948C0D8E01FF
:1014F0000F5E1F4FCE010596B8010E948C0D298505
:10150000223008F47EC03989323010F4B8017CC032
:101510008A859A8989278A87243011F0223031F40C
:10152000231709F06EC062E071E06EC0343039F408
:101530001D861E861F86188A1C861B8604C03230B4
:1015400021F484E08987B7015FC02B853C858B89B6
:101550009C89281B390B3C872B87ED84FE840F85E3
:101560001889AD88BE88CF88D88CEA14FB040C0596
:101570001D0540F4EE0CFF1C001F111F21503040D0
:101580003C872B8720E030E040E050E080E090E0B6
:10159000A0E0B0E460E070E0EA14FB040C051D0577
:1015A00040F0282B392B4A2B5B2BEA18FB080C093F
:1015B0001D09B695A79597958795EE0CFF1C001F02
:1015C000111F6F5F7F4F6F31710531F7DA01C9016C
:1015D0008F779070A070B07080349105A105B1052F
:1015E00061F427FD0AC0E114F1040105110529F099
:1015F000205C3F4F4F4F5F4F20782D873E874F87AE
:10160000588BBE01675F7F4FCB010E94B70C689675
:10161000EAE00C94810EA8E1B0E0E1E1FBE00C947B
:10162000690E69837A838B839C832D833E834F83EA
:10163000588789E0E82EF12CEC0EFD1ECE010196B4
:10164000B7010E948C0D8E010F5E1F4FCE010596D3
:10165000B8010E948C0D8985823040F089898230E2
:1016600028F0C701B8010E94040E01C08FEF6896F0
:10167000E6E00C94850EA8E1B0E0E1E4FBE00C9418
:10168000690E69837A838B839C832D833E834F838A
:10169000588789E0E82EF12CEC0EFD1ECE01019654
:1016A000B7010E948C0D8E010F5E1F4FCE01059673
:1016B000B8010E948C0D8985823040F08989823082
:1016C00028F0C701B8010E94040E01C08FEF689690
:1016D000E6E00C94850EA8E1B0E0E1E7FBE00C94B5
:1016E000690E69837A838B839C832D833E834F832A
:1016F000588789E0E82EF12CEC0EFD1ECE010196F4
:10170000B7010E948C0D8E010F5E1F4FCE01059612
:10171000B8010E948C0D8985823040F08989823021
:1017200028F0C701B8010E94040E01C081E068964C
:10173000E6E00C94850EACE0B0E0E1EAFBE00C944E
:101740006D0E69837A838B839C83CE010196BE01E3
:101750006B5F7F4F0E948C0D8D81823061F18230F2
:1017600050F1843021F48E81882351F12EC02F81D5
:10177000388537FD20C06E812F3131051CF066237E
:10178000F9F023C08EE190E0821B930B29853A8506
:101790004B855C8504C056954795379527958A9566
:1017A000D2F76623B1F050954095309521953F4F83
:1017B0004F4F5F4F0EC020E030E040E050E009C0E6
:1017C0002FEF3FEF4FEF5FE704C020E030E040E055
:1017D00050E8B901CA012C96E2E00C94890EA8E009
:1017E000B0E0E5EFFBE00C94650E7B018C01611528
:1017F00071058105910519F482E0898360C083E059
:1018000089838EE1C82ED12CDC82CB82ED82FE82D0
:101810000F831887C801B7010E94680CFC0131973B
:10182000F7FF3BC0222733272E1B3F0B57016801D0
:10183000022E04C0D694C794B794A7940A94D2F702
:1018400040E050E060E070E081E090E0A0E0B0E0D7
:1018500004C0880F991FAA1FBB1F2A95D2F70197B2
:10186000A109B1098E219F21A023B1230097A105D1
:10187000B10521F041E050E060E070E04A295B29C9
:101880006C297D294D835E836F8378878EE190E09C
:101890008E1B9F0B9C838B8312C0309781F00E2E82
:1018A00004C0EE0CFF1C001F111F0A94D2F7ED823A
:1018B000FE820F831887CE1ADF0ADC82CB821A825F
:1018C000CE0101960E94B70C2896EAE00C94810E96
:1018D000EF92FF920F931F937B018C0180E0E8163B
:1018E00080E0F80681E0080780E0180788F48FEFB1
:1018F000E816F1040105110531F028F088E090E0C8
:10190000A0E0B0E017C080E090E0A0E0B0E012C03E
:1019100080E0E81680E0F80680E0080781E018071C
:1019200028F088E190E0A0E0B0E004C080E190E021
:10193000A0E0B0E020E230E040E050E0281B390BAE
:101940004A0B5B0B04C016950795F794E7948A95AC
:10195000D2F7F701E65FFE4F8081281B310941096C
:101960005109C9011F910F91FF90EF900895DF92E7
:10197000EF92FF920F931F93FC01E480F5800681A4
:101980001781D1808081823048F480E090E0A0E12E
:10199000B0E0E82AF92A0A2B1B2BA5C0843009F4F1
:1019A0009FC0823021F4EE24FF24870105C0E1149A
:1019B000F1040105110519F4E0E0F0E096C0628140
:1019C00073819FEF623879070CF05BC022E83FEF2C
:1019D000261B370B2A3131052CF020E030E040E0A7
:1019E00050E02AC0B801A701022E04C07695679581
:1019F000579547950A94D2F781E090E0A0E0B0E0D7
:101A000004C0880F991FAA1FBB1F2A95D2F7019700
:101A1000A109B1098E219F21A023B1230097A1051F
:101A2000B10521F081E090E0A0E0B0E09A01AB01C7
:101A3000282B392B4A2B5B2BDA01C9018F77907049
:101A4000A070B07080349105A105B10539F427FF6D
:101A500009C0205C3F4F4F4F5F4F04C0215C3F4F98
:101A60004F4F5F4FE0E0F0E02030A0E03A07A0E009
:101A70004A07A0E45A0710F0E1E0F0E079018A019A
:101A800027C06038710564F5FB01E158FF4FD801AC
:101A9000C7018F779070A070B07080349105A10558
:101AA000B10539F4E7FE0DC080E490E0A0E0B0E0BD
:101AB00004C08FE390E0A0E0B0E0E80EF91E0A1F3A
:101AC0001B1F17FF05C016950795F794E7943196ED
:101AD00087E016950795F794E7948A95D1F705C0A6
:101AE000EE24FF248701EFEFF0E06E2F6795662765
:101AF0006795902F9F77D794DD24D7948E2F869566
:101B0000492F462B582F5D29B701CA011F910F910C
:101B1000FF90EF90DF900895FC01DB01408151813F
:101B20002281622F6F7770E0221F2227221F93816C
:101B3000892F880F822B282F30E0991F9927991F12
:101B400011969C93119721153105A9F54115510561
:101B50006105710511F482E037C082E89FEF1396AA
:101B60009C938E9312979A01AB0167E0220F331F6B
:101B7000441F551F6A95D1F783E08C930DC0220F47
:101B8000331F441F551F12968D919C9113970197F7
:101B900013969C938E931297203080E0380780E054
:101BA000480780E4580758F314962D933D934D93BE
:101BB0005C93179708952F3F310579F4411551052E
:101BC0006105710519F484E08C93089564FF03C0E6
:101BD00081E08C9312C01C9210C02F573040139696
:101BE0003C932E93129783E08C9387E0440F551F0C
:101BF000661F771F8A95D1F7706414964D935D9395
:101C00006D937C93179708951F93DC01FB019C91C2
:101C1000923008F447C08081823008F443C0943089
:101C200051F411961C91843099F58181682F70E0F0
:101C3000611B71093FC0843021F0923031F4823051
:101C4000B9F18181882389F12DC011961C911197DA
:101C50008230F1F081811817D9F412962D913C91C0
:101C60001397828193818217930794F0281739077D
:101C7000BCF014968D919D910D90BC91A02D248166
:101C8000358146815781281739074A075B0718F4C1
:101C9000112341F00AC082179307A407B50740F447
:101CA000112319F061E070E005C06FEF7FEF02C013
:101CB00060E070E0CB011F9108952F923F924F9208
:101CC0005F926F927F928F929F92AF92BF92CF92CC
:101CD000DF92EF92FF920F931F93CF93DF93CDB7D5
:101CE000DEB7CA1BDB0B0FB6F894DEBF0FBECDBF4D
:101CF00009942A88398848885F846E847D848C841E
:101D00009B84AA84B984C884DF80EE80FD800C8126
:101D10001B81AA81B981CE0FD11D0FB6F894DEBF09
:0C1D20000FBECDBFED010895F894FFCF79
:101D2C00A3D9000000000000000000010202030320
:101D3C000303040404040404040405050505050553
:101D4C000505050505050505050506060606060631
:101D5C000606060606060606060606060606060617
:101D6C000606060606060606060607070707070701
:101D7C0007070707070707070707070707070707E7
:101D8C0007070707070707070707070707070707D7
:101D9C0007070707070707070707070707070707C7
:101DAC0007070707070707070707080808080808B1
:101DBC000808080808080808080808080808080897
:101DCC000808080808080808080808080808080887
:101DDC000808080808080808080808080808080877
:101DEC000808080808080808080808080808080867
:101DFC000808080808080808080808080808080857
:101E0C000808080808080808080808080808080846
:101E1C000808080808080808080808080808080836
:0A1E2C00080808080808080808085C
:00000001FF
